:100000000C9434000C9449000C9449000C94490061
:100010000C9449000C9449000C9449000C9449003C
:100020000C9449000C9449000C9449000C9449002C
:100030000C9449000C9449000C9449000C9449001C
:100040000C9449000C9449000C9449000C9449000C
:100050000C9449000C9449000C9449000C944900FC
:100060000C9449000C94490011241FBECFEFD4E03A
:10007000DEBFCDBF11E0A0E0B1E0E0E5F1E002C0FD
:1000800005900D92AE30B107D9F70E947D000C9417
:10009000A6000C9400001092C50083E38093C40076
:1000A00088E98093C10086E08093C2000895809122
:1000B000C00087FFFCCF8091C60008959091C000DA
:1000C00095FFFCCF8093C6000895FC019081992391
:1000D00099F031968091C00085FFFCCF9093C600C7
:1000E0008FE79AE1A6E081509040A040E1F700C080
:1000F00000009191992371F708958FEF84B91092C0
:10010000C50093E39093C40098E99093C10096E0F2
:100110009093C20085B98FEF99E6A8E18150904095
:10012000A040E1F700C0000015B880E091E00E9417
:1001300065008091C00087FFFCCF9091C600809140
:10014000C00085FFFCCF9093C600F3CFF894FFCF9B
:0E015000436F6E6E6563746564210D0A0000D6
:00000001FF
