:100000000C9434000C943E000C943E000C943E0082
:100010000C943E000C943E000C943E000C943E0068
:100020000C943E000C943E000C943E000C943E0058
:100030000C943E000C943E000C943E000C943E0048
:100040000C943E000C943E000C943E000C943E0038
:100050000C943E000C9489000C943E000C943E00DD
:100060000C943E000C943E0011241FBECFEFD4E050
:10007000DEBFCDBF0E946F000C94B2000C94000054
:100080001092C50083E38093C40088E08093C10090
:1000900086E08093C20008959091C00095FFFCCF48
:1000A0008093C60008951616170684F4E82FF92FDA
:1000B00080E090E031912091C00025FFFCCF30938B
:1000C000C6000000019686179707A1F708952D9B9B
:1000D00003C080E085B9089580E285B90895109243
:1000E000C50083E38093C40088E08093C10086E06C
:1000F0008093C20080E284B985E680937C008EEA1A
:1001000080937A00789480917A00806480937A005A
:10011000FFCF1F920F920FB60F9211248F939F93D0
:10012000AF93BF93909179008091C00085FFFCCF81
:100130009093C6002D9B14C080E085B98FE79AE1AB
:10014000A6E081509040A040E1F700C00000BF91C0
:10015000AF919F918F910F900FBE0F901F901895A8
:0801600080E2EBCFF894FFCF21
:00000001FF
