:100000000C9434000C9451000C9451000C94510049
:100010000C9451000C9451000C9451000C9451001C
:100020000C9451000C9451000C9451000C9451000C
:100030000C9451000C9451000C9451000C945100FC
:100040000C9451000C9451000C9451000C945100EC
:100050000C9451000C9451000C9451000C945100DC
:100060000C9451000C94510011241FBECFEFD4E02A
:10007000DEBFCDBF11E0A0E0B1E0E2E3F2E002C0FC
:1000800005900D92A232B107D9F711E0A2E2B1E0DA
:1000900001C01D92A233B107E1F70E94C0000C9489
:1000A00017010C9400001092C50083E38093C400F4
:1000B00088E98093C10086E08093C2000895809112
:1000C000C00087FFFCCF8091C60008959091C000CA
:1000D00095FFFCCF8093C6000895FC019081992381
:1000E00099F031968091C00085FFFCCF9093C600B7
:1000F0008FE79AE1A6E081509040A040E1F700C070
:1001000000009191992371F70895009761F12AE019
:10011000209330012DE020932F01362F40E0742FE3
:100120000E940301FC01EC5FFE4F808180932E0151
:10013000CB01009711F1EEE2F1E02BE0632F742F79
:100140000E940301DC01AC5FBE4F8C918293215071
:10015000CB01009761F0222389F721E030E02E5D8A
:100160003E4FC901089520E031E0C90108953327C9
:1001700027FD30952F5F3F4FF2CF2CE030E0EFCFDF
:10018000CF938FEF84B91092C50083E38093C400AE
:1001900088E98093C10086E08093C20080917A0054
:1001A000806480937A008FEF99E6A8E181509040B7
:1001B000A040E1F700C0000085E191E00E946D00E1
:1001C000CFEFC5B980917A0086FDFCCF8091780091
:1001D000909179006AE00E9485000E946D008FEF87
:1001E00099E6A8E181509040A040E1F700C00000EE
:1001F00015B88FEF99E6A8E181509040A040E1F753
:1002000000C00000DECFAA1BBB1B51E107C0AA1F24
:10021000BB1FA617B70710F0A61BB70B881F991FA7
:100220005A95A9F780959095BC01CD010895F89451
:02023000FFCFFE
:10023200300D0A00303132333435363738394142E5
:100242004344454600436F6E6E6563746564210DD9
:020252000A00A0
:00000001FF
