:100000000C9434000C9449000C9449000C94490061
:100010000C9449000C9449000C9449000C9449003C
:100020000C9449000C9449000C9449000C9449002C
:100030000C9449000C9449000C9449000C9449001C
:100040000C9449000C9449000C9449000C9449000C
:100050000C9449000C9449000C9449000C944900FC
:100060000C9449000C94490011241FBECFEFD4E03A
:10007000DEBFCDBF11E0A0E0B1E0EAE8F1E002C0F0
:1000800005900D92A430B107D9F70E9453000C944B
:10009000C3000C9400002D9B03C080E085B9089537
:1000A00080E285B90895CF93DF9383E390E00E94C7
:1000B000910080E284B985B985E680937C00D6EC16
:1000C000C6E0D0937A0080917A0086FDFCCFC09381
:1000D0007A00809179000E94A40080E091E00E9463
:1000E000AB008FEF94E3ACE081509040A040E1F78B
:1000F00000C000002D9913C080E285B98FEF94E312
:10010000ACE081509040A040E1F700C000002D9984
:1001100003C080E285B9D5CF80E085B9D2CF80E039
:10012000ECCF1092C50083E38093C40088E98093EC
:10013000C10086E08093C20008958091C00087FFCF
:10014000FCCF8091C60008959091C00095FFFCCF30
:100150008093C6000895FC019081992399F031960F
:100160008091C00085FFFCCF9093C6008FE79AE195
:10017000A6E081509040A040E1F700C000009191BE
:0A018000992371F70895F894FFCF5A
:04018A000A0D00005A
:00000001FF
