:100000000C9434000C943E000C943E000C943E0082
:100010000C943E000C943E000C943E000C943E0068
:100020000C943E000C943E000C943E000C943E0058
:100030000C943E000C943E000C943E000C943E0048
:100040000C943E000C943E000C943E000C943E0038
:100050000C943E000C943E000C943E000C943E0028
:100060000C943E000C943E0011241FBECFEFD4E050
:10007000DEBFCDBF0E9481000C94A9000C9400004B
:1000800082E8809380008AE180938100109285004D
:10009000109284008FE19EE4909387008093860005
:1000A000089581309105D9F08130910538F0823082
:1000B0009105F1F08330910551F008958EE992E0B9
:1000C000909389008093880080E385B908958AE938
:1000D00096E0909389008093880015B808958CE984
:1000E00094E0909389008093880080E185B9089519
:1000F00088E998E0909389008093880080E285B930
:100100000895CF93DF9382E8809380008AE1809303
:10011000810010928500109284008FE19EE49093FC
:1001200087008093860082E384B980E285B9C0E0CD
:10013000D0E08FEF99E6A8E181509040A040E1F730
:1001400000C00000CE010E9451002196C370D07003
:06015000F0CFF894FFCF90
:00000001FF
