:100000000C9434000C943E000C943E000C943E0082
:100010000C943E000C943E000C943E000C943E0068
:100020000C943E000C943E000C943E000C943E0058
:100030000C943E000C943E000C943E000C943E0048
:100040000C943E000C943E000C943E000C943E0038
:100050000C943E000C943E000C943E000C943E0028
:100060000C943E000C943E0011241FBECFEFD4E050
:10007000DEBFCDBF0E9448000C94F6000C94000037
:100080002D9B03C080E085B9089580E285B908956D
:10009000CF9383E390E00E948F000E94B90082E337
:1000A00084B980E285B90E949B00C82F8233E9F0B1
:1000B000833300F5813361F12D992FC080E285B93A
:1000C0008FEF94E3ACE081509040A040E1F700C096
:1000D00000008C2F0E94A2002D9BE3CF80E085B909
:1000E0000E949B00C82F823319F78AE590E00E9496
:1000F000CA00E6CF833339F08433F1F687E890E025
:100100000E94CA00DDCF8DE290E00E94CA00D8CFE5
:1001100080E090E00E94CA00D3CF80E0D0CF109260
:10012000C50083E38093C40088E98093C10086E022
:100130008093C20008958091C00087FFFCCF80911A
:10014000C60008959091C00095FFFCCF8093C60033
:100150000895FC019081992359F031968091C00057
:1001600085FFFCCF9093C600000091919923B1F7D1
:10017000089582E8809380008AE180938100109244
:100180008500109284008FE19EE490938700809315
:10019000860008958D329105D1F08E32910538F0A8
:1001A0008A359105D9F08738910551F00895009767
:1001B000E1F48EE992E0909389008093880008959D
:1001C00088E998E0909389008093880008958CE9ED
:1001D00094E0909389008093880008958AE996E0DE
:1001E000909389008093880008950895F894FFCF34
:00000001FF
