:100000000C9434000C9451000C9451000C94510049
:100010000C9451000C9451000C9451000C9451001C
:100020000C9451000C9451000C9451000C9451000C
:100030000C9451000C9451000C9451000C945100FC
:100040000C9451000C9451000C9451000C945100EC
:100050000C9451000C9451000C9451000C945100DC
:100060000C9451000C94510011241FBECFEFD4E02A
:10007000DEBFCDBF11E0A0E0B1E0E4E4F1E002C0FA
:1000800005900D92A431B107D9F711E0A4E1B1E0D8
:1000900001C01D92A431B107E1F70E9473000C94D6
:1000A000A0000C9400009093C5008093C40088E0E9
:1000B0008093C10086E08093C2000895CF93DF93C0
:1000C000FC019081992361F0A0ECB0E0C6ECD0E097
:1000D0008C9185FFFDCF9883319690819923C1F74C
:1000E000DF91CF910895EF92FF920F931F93CF93DB
:1000F000DF9389E190E00E94530004E214EFC8010D
:100100000197F1F780E091E00E945E00C80101973D
:10011000F1F70F2EFFE0EF2EF1E0FF2EF02DC4E2FD
:10012000D4EF01E111E0C7010E945E00CE0101970A
:10013000F1F7C8010E945E00CE010197F1F7F3CFFD
:04014000F894FFCF61
:100144000D0A436F6E6E6563746564210D0A005574
:040154000054000053
:00000001FF
